:100000006F20B04C1300000013000000130000002C
:100010001300000013000000130000001300000094
:100020001300000013000000130000001300000084
:08003000130000007300100032
:100038000000000000000000DA2B0000EA2B00009E
:1000480000000000102C000000000000000000006C
:10005800122C0000142C000000000000000000001A
:10006800162C000000000000182C00000000000002
:100078001A2C00001C2C00001E2C0000202C000054
:10008800222C0000242C00000A2300007E230000FC
:10009800F223000066240000DA240000302C00005F
:1000A800322C0000342C0000362C0000382C0000C4
:1000B8003A2C00003C2C00003E2C0000402C000094
:1000C800422C0000442C0000462C00004E25000065
:1000D8004A2C0000F22600004E2C0000502C000094
:1000E80072270000EA2700006A280000582C000048
:1000F8005A2C00005C2C00005E2C0000602C0000D4
:10010800622C0000521E0000D61E00005A1F00007C
:10011800262600006C2C00006E2C0000702C0000BD
:10012800622A0000742C0000762C0000782C000055
:100138007A2C00007C2C0000EA280000802C0000AB
:10014800DE1F0000622000006A290000E22900008A
:100158008A2C00008C2C00008E2C0000902C0000B3
:10016800922C0000942C0000962C0000982C000083
:100178009A2C00009C2C00009E2C0000B439000032
:10018800A22C0000A42C000076220000E820000029
:100198006C210000F6210000AE2C0000E22A0000CD
:1001A800B22C0000B42C0000B62C0000622B00001A
:1001B800BA2C0000BC2C0000BE2C0000C02C000093
:1001C800C22C0000C42C0000C62C0000C82C000063
:1001D8000000000000000000000000000000000017
:1001E8000000000000000000000000000000000007
:0801F8000000000000000000FF
:100200003D432A876373C3029377F700BDEFADE5E3
:10021000937606FF3D8ABA960CC34CC30CC74CC7F5
:100220004107E36BD7FE11E28280B306C3408A0622
:100230009702000096966780A6002307B700A306E2
:10024000B7002306B700A305B7002305B700A30432
:10025000B7002304B700A303B7002303B700A3022A
:10026000B7002302B700A301B7002301B700A30022
:10027000B7002300B700828093F5F50F93968500B1
:10028000D58D93960501D58D61B79396270097027A
:10029000000096968682E78086FA9680C1171D8FA9
:1002A0003E96E374C3F8A5B7797106D622D4001838
:1002B000232EA4FC232CB4FCB2872328D4FCA30B4C
:1002C000F4FC232004FE232204FE232404FE8327BF
:1002D000C4FD958393F7F70F9D8BA307F4FE832747
:1002E000C4FD93F7F70FFD8B2307F4FE8347F4FE5D
:1002F00091E785451145EF20907F91A80347F4FED3
:1003000085476317F70085452145EF20507E81A082
:100310000347F4FE89476317F70085454145EF2001
:10032000107D35A00347F4FE8D476318F70085451F
:1003300013050002EF20B07B19A80347F4FE914794
:100340006317F700854513050004EF20507A8347B3
:10035000E4FE0547B317F700C207C1832310F4FE7C
:10036000032784FD85476317F702832704FDC2072F
:10037000C183A183C207C18389E78D472322F4FE8D
:1003800011A8832704FDC207C183A183C207C183CB
:100390002322F4FE832704FDC207C18393F7F70FDE
:1003A0002324F4FE0347F4FEB70700200A079387CF
:1003B0000700BA979C43130704FEBA853E85EF20D9
:1003C0009020032784FD85476319F7020347F4FE55
:1003D000B70700200A0793870700BA97944383471B
:1003E000E4FE0547B317F700C207C183034774FD56
:1003F0003A86BE853685EF20B03F0100B2502254C8
:1004000045618280011122CE00102326A4FEAE8712
:10041000A305F4FE0100A9670327C4FE0A0793871A
:100420004762BA979C4383D70700C207C18393F7FB
:100430000708F5D3A9670327C4FE0A079387476215
:10044000BA979C433E878347B4FEC207C1832312F9
:10045000F7000100724405618280011106CE22CCB2
:1004600000102326A4FE2324B4FE832784FEB33782
:10047000F00093F7F70F3E8713060005A9679385F1
:10048000873B3A85EF00D07F39A8832784FE138706
:1004900017002324E4FE8387070093F7F70FBE8538
:1004A0000325C4FE8537832784FE83870700F1FF79
:1004B0000100F240624405618280011122CE0010E9
:1004C0002326A4FE2324B4FEA9670327C4FE0A073B
:1004D00093874762BA979C4383D70700C207C183BB
:1004E00093F707028DC7A9670327C4FE0A079387FE
:1004F0004762BA979C4383D74700C207C18313F76B
:10050000F70F832784FE2380E700854711A08147EA
:100510003E85724405618280797106D622D4001826
:10052000232EA4FC232CB4FC232AC4FC2328D4FCB3
:10053000032744FD832704FD3D8F8327C4FDB207B5
:10054000F98F93B7170093F7F70F3E871306A00AAA
:10055000A9679385873B3A85EF009072832744FD16
:1005600013D78700832704FDA183B307F74093B710
:10057000170093F7F70F3E871306B00AA967938514
:10058000873B3A85EF00D06F832744FD93F7F70F41
:10059000E146014685453E85013B832704FD93F7EF
:1005A000F70F93068004014681453E85F539854560
:1005B0000545EF20D053032744FDC167FD17F98F90
:1005C0000D67130707386385E7200D6713070738A2
:1005D0006369F7040567130757166381E716056714
:1005E00013075716636FF7001307F022638AE70CAF
:1005F000130760306381E710130760126388E70810
:1006000055A6096713078736638AE7160D67130730
:1006100007126385E71809671307A7146380E714B7
:1006200051A615671307A738638CE72615671307CC
:10063000A7386362F702116713078738638EE71ED6
:100640001567130787126383E722116713074712A1
:10065000638AE71A81AE19671307C7386386E72AEA
:1006600019671307C7386368F7001967130767101E
:100670006382E72605AE1D671307E7106380E72C4A
:100680001D671307E7386385E72E29AEB7070140DA
:10069000D44FB7070140370700FC7D17758FD8CFBF
:1006A000B7070140D843B70701406D9BD8C3B707D0
:1006B0000140D843B707014013674700D8C3DDA402
:1006C000B7070140D44FB7070140370700FC7D173B
:1006D000758FD8CFB7070140D44FB7070140370710
:1006E0000004558FD8CFB7070140D843B707014062
:1006F0006D9BD8C345ACB7070140D44FB707014045
:10070000370700FC7D17758FD8CFB7070140D44F4E
:10071000B707014037070004558FD8CFB70701400E
:10072000D843B70701406D9BD8C3B7070140D843F2
:10073000B707014013674700D8C3ADA4B70701400E
:10074000D843B70701405D9BD8C3B7070140D843E2
:10075000B707014013678700D8C3A9A4B7070140B2
:10076000D843B70701401D9BD8C3B7070140D84302
:10077000B707014013678700D8C32DA4B70701400E
:10078000D843B70701401D9BD8C3B7070140D843E2
:10079000B707014013678701D8C329A4B7070140F1
:1007A000D44FB70701403707FDFF7D17758FD8CFAE
:1007B000B7070140D44F832744FDA1831397070156
:1007C000B70703007D8FB7070140558FD8CFD9AA4F
:1007D000B7070140D44FB70701403707FDFF7D172A
:1007E000758FD8CFB7070140D44F832744FDA1832D
:1007F00013970701B70703007D8FB7070140558F97
:10080000D8CF4DA2B7070140D44FB70701403707F3
:10081000F4FF7D17758FD8CFB7070140D44F8327DA
:1008200044FDA18313972701B7070C007D8FB707FD
:100830000140558FD8CFBDA2B7070140D44FB707AD
:1008400001403707F4FF7D17758FD8CFB7070140F8
:10085000D44F832744FDA18313972701B7070C00CA
:100860007D8FB7070140558FD8CF2DAAB70701401C
:10087000D44FB70701403707D0FF7D17758FD8CF0A
:10088000B7070140D44F832744FDA1831397470145
:10089000B70730007D8FB7070140558FD8CF19A219
:1008A000B7070140D44FB70701403707D0FF7D1786
:1008B000758FD8CFB7070140D44F832744FDA1835C
:1008C00013974701B70730007D8FB7070140558F59
:1008D000D8CFC9A8B7070140D44FB70701403707A1
:1008E00040FF7D17758FD8CFB7070140D44F8327BE
:1008F00044FDA18313976701B707C0007D8FB70739
:100900000140558FD8CF79A8B7070140D44FB7071A
:100910000140370740FF7D17758FD8CFB7070140DB
:10092000D44F832744FDA18313976701B707C00005
:100930007D8FB7070140558FD8CFADA0B7070140D5
:10094000D44FB7070140370700FD7D17758FD8CF0B
:10095000B7070140D44F832744FDA1831397870134
:10096000B70700037D8FB7070140558FD8CF1DA86B
:10097000B7070140D44FB7070140370700FD7D1787
:10098000758FD8CFB7070140D44F832744FDA1838B
:1009900013978701B70700037D8FB7070140558F75
:1009A000D8CF01008327C4FD91E785451165EF206D
:1009B000101469A80327C4FD85476318F70085450F
:1009C00037050200EF20101751A00327C4FD894707
:1009D0006318F700854537050400EF20B015BDA06A
:1009E0000327C4FD8D476318F700854537050800C8
:1009F000EF205014A1A80327C4FD91476318F70006
:100A0000854537051000EF20F01289A00327C4FDAB
:100A100095476318F700854513050004EF209011F2
:100A200035A00327C4FD99476318F70085451305D2
:100A30000008EF20301019A80327C4FD9D47631755
:100A4000F700854513050010EF20D00E232004FE8B
:100A5000232204FE232404FE232604FE832784FD90
:100A60002320F4FE231204FE231304FE231404FEA9
:100A7000231604FEB1472315F4FEA9670327C4FD1E
:100A80000A0793874762BA979C433E87930704FE01
:100A9000BE853A85EF205018A9670327C4FD0A07D1
:100AA00093874762BA979C4385453E85EF20103A6D
:100AB0000100B250225445618280011106CE22CC41
:100AC000001083C711836389070E09A8930734FEBA
:100AD0000546BE8513850187EF001051930734FE4C
:100AE000BE851D45D93AAA87F5F3034734FEA947C9
:100AF0006314F70C99472322F4FE130744FE93076F
:100B000084FE85463A86BE8513850187EF00D07C3A
:100B1000930784FE138737000D46A96793858741A5
:100B20003A85EF60D062AA879DEB03A7818389474E
:100B3000630DF706054723ACE18213850187EF00BB
:100B40009046AA872322F4FE930744FE81463E8600
:100B50009385C19013850187EF001078B9A09307A2
:100B600084FE138737000D46A9679385C7413A85F0
:100B7000EF60F05DAA8795EB03A741838947630681
:100B8000F702054723AAE18213850187EF00B041F0
:100B9000AA872322F4FE930744FE81463E8693856E
:100BA000C18813850187EF00307313850187EF003B
:100BB000B02F05472388E1820100F24062440561BD
:100BC0008280411122C60008010032444101828026
:100BD000411122C60008B71702409843B7170240D8
:100BE0001367170098C3B7170240D443B7170240E2
:100BF0003707FFF8758FD8C3B71702409443B7176C
:100C000002403707F7FE7D17758F98C3B71702406C
:100C10009443B71702403707FCFF7D17758F98C3C1
:100C2000B7170240D443B7170240370781FF7D173B
:100C3000758FD8C3B717024037079F0098C70100C8
:100C4000324441018280797122D60018232EA4FCFF
:100C5000232604FE232404FEB71702409443B7174B
:100C600002404167558F98C3B71702409843B707B2
:100C70000200F98F2324F4FE8327C4FE8507232670
:100C8000F4FE832784FE91E70327C4FE8567E31DF6
:100C9000F7FCB71702409843B7070200F98F89C7DE
:100CA00085472324F4FE19A0232404FE032784FE91
:100CB00085476312F71637170240B71702405843AB
:100CC000D8C337170240B71702405843D8C3371765
:100CD0000240B71702405843D8C3B7170240D44365
:100CE000B71702403707C1FF7D17758FD8C3032799
:100CF000C4FDB747950893870740631BF700B717F4
:100D00000240D443B71702404167558FD8C355A856
:100D10000327C4FDB7172707938707E0631CF70075
:100D2000B7170240D443B717024037073900558F31
:100D3000D8C341A80327C4FDB7E7B8059387078048
:100D4000631CF700B7170240D443B71702403707B8
:100D50002900558FD8C3B5A00327C4FDB7A74A04FF
:100D600093870720631CF700B7170240D443B717D7
:100D7000024037071D00558FD8C3A1A00327C4FD2B
:100D8000B777DC02938707C0631CF700B7170240F0
:100D9000D443B717024037071100558FD8C315A0A9
:100DA0000327C4FDB7376E0193870760631BF70005
:100DB000B7170240D443B717024037070500558FD5
:100DC000D8C3B71702409443B71702403707000152
:100DD000558F98C30100B71702409843B707000228
:100DE000F98FF5DBB7170240D843B7170240719B64
:100DF000D8C3B7170240D843B7170240136727007C
:100E0000D8C30100B7170240DC4313F7C700A1475E
:100E1000E31AF7FE11A001A032544561828001114E
:100E200006CE22CC00102326A4FE0327C4FE23A650
:100E3000E180793B0325C4FE3935EF102000010025
:100E4000F240624405618280411122C6000801001F
:100E50000100324441018280011106CE22CC0010F3
:100E6000232604FE232404FE232604FE25A0232497
:100E700004FE39A0D13F832784FE85072324F4FE96
:100E8000032784FEC167E367F7FE8327C4FE850757
:100E90002326F4FE0327C4FE9307F00FE3F9E7FCD3
:100EA0000100F240624405618280411122C60008BF
:100EB0000100324441018280011106CE22CC001093
:100EC0002326A4FE8325C4FE0945EFF00FD90100B7
:100ED000F240624405618280130101D92326112664
:100EE0002324812623229126801C232EA4D8232C60
:100EF000B4D8232AC4D82328D4D8231504FE231415
:100F000004FE231304FE231204FE231104FE032512
:100F100084D9EF60B022AA87C207C1872313F4FEE9
:100F200083D7C19889C79387C1989C4B829783C701
:100F3000C18393F7F70F638D074A83D7C1986387FF
:100F400007449387C198D447835724FE139707011A
:100F5000418793170701C1838507C207C183C20771
:100F6000C1872311F4FE93170701C1830326C4D957
:100F7000BE8501458296832784D92326F4FE032566
:100F800084D9EF60B01BAA87C207C1872313F4FE80
:100F90009387C19883D727003E879387C19883C7DB
:100FA0006700B347F702C207C1872312F4FE0100AE
:100FB0008327C4FE138717002326E4FE83870700D8
:100FC000E5FB231404FEA1A88327C4FEFD172326F6
:100FD000F4FE8327C4FE038707009307F002630A29
:100FE000F7008327C4FE038707009307C005631B30
:100FF000F700835784FEC207C1838507C207C183F8
:101000002314F4FE835764FEC207C187C207C1835D
:10101000FD17C207C183C207C1872313F4FE83579C
:1010200084FE139707014183854763E8E7008357F0
:1010300064FEC207C187E3D907F8835764FEC2077D
:10104000C18763C207028327C4FE85072326F4FEF7
:10105000130704EE0326C4FEA967938587503A85DB
:10106000EF6070091DA8835784FEC207C18381EF1A
:10107000130704EE0326C4FEA967938547513A85FA
:10108000EF60700719A8130704EE0326C4FEA967D2
:10109000938587503A85EF601006231504FE21AA38
:1010A000231404FE59A0930704EE3E85EF60100957
:1010B0002A87835784FEC207C183BE868357A4FE56
:1010C000C207C1833E86835744FEC207C187B30768
:1010D000F602B6976367F706835784FEC207C1839B
:1010E0003E878357A4FEC207C183BE86835744FE52
:1010F000C207C187B387F602BA97035784FE420737
:101100004183BA86130704FFBA97038707EF930753
:1011100004FFB6972388E7EA835784FEC207C1839A
:101120008507C207C1832314F4FE835784FEC207D8
:10113000C1833E87835744FEC207C187E345F7F664
:1011400011A00100835784FEC207C183130704FF67
:10115000BA97238807EA9387C19803A8C7009387A3
:10116000C19883C77700139707014183835724FEF3
:1011700093960701C18693970601C1838507C2072D
:10118000C183C207C1872311F4FE93970601C1836F
:10119000B307F702C207C183130704EA3A86BE8584
:1011A000014502988357A4FEC207C1838507C20781
:1011B000C1832315F4FE8357A4FEC207C183BE84F6
:1011C000930704EE3E85EF6060772A87835744FEDD
:1011D000C207C187B357F7028507E3E3F4EC1307AF
:1011E00004EE032644D9A967938547523A85EF60F8
:1011F00080709387C19803A8C7009387C19883C75D
:101200007700139707014183835724FE93960701C4
:10121000C18693970601C1838507C207C183C207B0
:10122000C1872311F4FE93970601C183B307F70228
:10123000C207C183130704EE3A86BE8501450298B2
:10124000832704D96386071A231504FE21AA2314D1
:1012500004FE59A0032504D9EF60406E2A87835706
:1012600084FEC207C183BE868357A4FEC207C18322
:101270003E86835744FEC207C187B307F602B6977E
:101280006368F706835784FEC207C1833E8783578E
:10129000A4FEC207C183BE86835744FEC207C1872E
:1012A000B387F602BA973E87832704D9BA970357C4
:1012B00084FE42074183BA8603870700930704FF31
:1012C000B6972388E7EA835784FEC207C183850760
:1012D000C207C1832314F4FE835784FEC207C1836F
:1012E0003E87835744FEC207C187E345F7F611A046
:1012F0000100835784FEC207C183130704FFBA9716
:10130000238807EA9387C19803A8C7009387C198E9
:1013100083C77700139707014183835724FE939671
:101320000701C18693970601C1838507C207C18360
:10133000C207C1872311F4FE93970601C183B30747
:10134000F702C207C183130704EA3A86BE85014546
:1013500002988357A4FEC207C1838507C207C183D1
:101360002315F4FE8357A4FEC207C183BE84032560
:1013700004D9EF60A05C2A87835744FEC207C18767
:10138000B357F7028507E3E4F4EC9DA0930704DA72
:101390001306001081453E85EFE09FE69387C198D4
:1013A0009C470325C4D98297832704D999CF130575
:1013B00004DA032704D9832644D9032684D9A967EC
:1013C00093850753EF60205329A8130704DA832677
:1013D00044D9032684D9A9679385C7543A85EF6019
:1013E00080519387C1989847930704DA3E85029706
:1013F00001008320C1260324812683244126130172
:1014000001278280797106D622D40018232EA4FCED
:10141000232CB4FC232AC4FC232604FEA9A001002B
:10142000A967938747629C47930500043E85EF2098
:10143000C02AAA87F5D7A967938747629C47BE86CB
:10144000832784FD13871700232CE4FC8387070080
:10145000C207C183BE853685EF2040258327C4FEA1
:1014600085072326F4FE0327C4FE832744FDE348B3
:10147000F7FA832744FD3E85B250225445618280AD
:10148000011106CE22CC0010AA872324B4FE232209
:10149000C4FEA307F4FE8347F4FEA1E383C70181E2
:1014A00093F7F70F9DCB83C7D18391C301A083C767
:1014B000D183850713F7F70FA38EE182EF00701534
:1014C000ED328146032644FE832584FEA9671385F9
:1014D00047561934EFF05F98EDB70100F2406244CF
:1014E00005618280011122CE00102326A4FE8327ED
:1014F000C4FE239007008327C4FE7D572391E70095
:101500008327C4FE7D572392E7008327C4FE7D57BF
:101510002383E7008327C4FE7D57A383E700832747
:10152000C4FE23A407008327C4FE23A60700832745
:10153000C4FE23A8070001007244056182800111E6
:1015400022CE00102326A4FE8327C4FE03D7070063
:101550002396E1988327C4FE03D727009387C19879
:101560002391E7008327C4FE03D747009387C198E0
:101570002392E7008327C4FE03C767009387C198BF
:101580002383E7008327C4FE03C777009387C198AE
:10159000A383E7008327C4FE98479387C19898C721
:1015A0008327C4FED8479387C198D8C78327C4FE32
:1015B000984B9387C19898CB0547238EE182010011
:1015C000724405618280797106D622D4001893078F
:1015D000C4FD3E85013FB7170000938787EB2322A8
:1015E000F4FE9307C4FD3E85993F89679386B70251
:1015F00089671386A702F167938507200945EFE005
:10160000BFF10100B250225445618280011122CE07
:1016100000102326A4FE2324B4FE8327C4FED8474B
:10162000832784FE3E978327C4FED8C719A8832743
:10163000C4FED8478327C4FE9C4F1D8F8327C4FE5A
:10164000D8C78327C4FE984F8327C4FEDC47E3F046
:10165000E7FE0100724405618280011122CE001074
:101660002326A4FE2324B4FE8327C4FE984B83279D
:1016700084FE3E978327C4FE98CB19A88327C4FE17
:10168000984B8327C4FE9C4F1D8F8327C4FE98CBA5
:101690008327C4FE984F8327C4FE9C4BE3F0E7FEEC
:1016A0000100724405618280797106D622D4001847
:1016B000232EA4FC8327C4FDB337F00093F7F70F64
:1016C0003E8713064005A967938507583A854D3B29
:1016D000232604FE8327C4FD83C70700858B93F769
:1016E000F70F89C789472326F4FE7DA08327C4FD11
:1016F00083C7070093E7170013F7F70F8327C4FD8D
:101700002380E7008327C4FD23A607008327C4FDA9
:1017100023A807008327C4FD984F8327C4FDD8CB97
:101720008327C4FDDC4305476383E70289C7094774
:10173000638CE702B9A08327C4FD98478327C4FDC3
:101740009C4F3E8681453A85EFE09FAB1DA88327DD
:10175000C4FD98478327C4FD9C4F86073E8681457C
:101760003A85EFE0FFA931A88327C4FD9847832776
:10177000C4FD9C4F8A073E8681453A85EFE05FA80D
:1017800001008327C4FD83C70700F99B13F7F70FF8
:101790008327C4FD2380E7008327C4FE3E85B25023
:1017A000225445618280011106CE22CC00102326EE
:1017B000A4FE8327C4FEB337F00093F7F70F3E87EC
:1017C0001306C007A967938507583A8555398327BB
:1017D000C4FE984F8327C4FEDC4BB307F7403E8519
:1017E000F240624405618280797106D622D40018E5
:1017F000232EA4FC232CB4FC232AC4FC8327C4FD81
:10180000B337F00093F7F70F3E871306C00BA967B5
:10181000938507583A85AD31232604FE232404FE20
:10182000832784FD89E78D472326F4FE79AC83273F
:10183000C4FD83C70700898B93F7F70F89C78547D6
:101840002326F4FE59A48327C4FD83C7070093E72A
:10185000270013F7F70F8327C4FD2380E7008327B2
:10186000C4FDDC4B032744FD63E3E7248327C4FD69
:10187000984F8327C4FDDC47B307F7402324F4FEC9
:10188000032744FD832784FE63FCE7168327C4FDFA
:10189000DC430547638DE70689C709476385E70E83
:1018A000EDAA8327C4FD98478327C4FDDC47BA9778
:1018B000032684FE832584FD3E85EF50E054832576
:1018C00084FE0325C4FD99338327C4FD98478327ED
:1018D000C4FDDC47B306F700032784FD832784FE9D
:1018E000B305F700032744FD832784FEB307F740C1
:1018F0003E863685EF504051032744FD832784FE02
:10190000B307F740BE850325C4FD093379A28327B9
:10191000C4FD98478327C4FDDC4786073E9783278D
:1019200084FE86073E86832584FD3A85EF50C04DB0
:10193000832584FE0325C4FDD1398327C4FD984740
:101940008327C4FDDC478607B306F700832784FEA0
:101950008607032784FDB305F700032744FD83278B
:1019600084FEB307F74086073E863685EF50C049B0
:10197000032744FD832784FEB307F740BE85032574
:10198000C4FD693119AA8327C4FD98478327C4FD84
:10199000DC478A073E97832784FE8A073E86832595
:1019A00084FD3A85EF504046832584FE0325C4FD1F
:1019B000B1398327C4FD98478327C4FDDC478A07D4
:1019C000B306F700832784FE8A07032784FDB30547
:1019D000F700032744FD832784FEB307F7408A07F7
:1019E0003E863685EF504042032744FD832784FE20
:1019F000B307F740BE850325C4FD0939010071A86E
:101A00008327C4FDDC430547638BE70289C7094789
:101A1000638EE70459A08327C4FD98478327C4FD3C
:101A2000DC47BA97032644FD832584FD3E85EF50AD
:101A3000A03D832544FD0325C4FDC93EB9A88327E5
:101A4000C4FD98478327C4FDDC4786073E9783275C
:101A500044FD86073E86832584FD3A85EF50C03AD3
:101A6000832544FD0325C4FD553605A88327C4FD01
:101A700098478327C4FDDC478A073E97832744FDA8
:101A80008A073E86832584FD3A85EF50E03783251B
:101A900044FD0325C4FD9D3E01008327C4FDD84BB2
:101AA000832744FD1D8F8327C4FDD8CB21A09147F8
:101AB0002326F4FE8327C4FD83C70700F59B13F795
:101AC000F70F8327C4FD2380E7008327C4FE3E85EC
:101AD000B250225445618280797106D622D4001812
:101AE000232EA4FC232CB4FC232AC4FC2328D4FCDE
:101AF0008327C4FDB337F00093F7F70F3E87130633
:101B00007016A967938507583A85EFF07F9783276A
:101B100044FDB337F00093F7F70F3E8713068016A6
:101B2000A967938507583A85EFF09F95232604FE11
:101B3000832784FD89E78D472326F4FE99AC83270C
:101B4000C4FD83C7070093E7470013F7F70F832708
:101B5000C4FD2380E7000325C4FDB1312324A4FE86
:101B6000832744FD9C43032784FE637AF700832781
:101B700044FD032784FE98C395472326F4FE83275C
:101B8000C4FD984F8327C4FD9C4BB307F740232225
:101B9000F4FE832744FD9C43032744FE6365F70856
:101BA0008327C4FDDC4305476388E70289C70947EB
:101BB0006387E704BDA28327C4FD98478327C4FD3C
:101BC0009C4B3E97832744FD9C433E86BA85032564
:101BD00084FDEF506023B1A28327C4FD984783277B
:101BE000C4FD9C4B86073E97832744FD9C43860794
:101BF0003E86BA85032584FDEF5000211DA2832770
:101C0000C4FD98478327C4FD9C4B8A073E978327D2
:101C100044FD9C438A073E86BA85032584FDEF5028
:101C2000A01E0100FDA88327C4FDDC430547638A8D
:101C3000E70489C70947638EE708E5A08327C4FD49
:101C400098478327C4FD9C4BBA97032644FEBE8564
:101C5000032584FDEF50401B032784FD832744FEAA
:101C6000B306F7008327C4FD8C47832744FD9843C0
:101C7000832744FEB307F7403E863685EF50C018F1
:101C80004DA08327C4FD98478327C4FD9C4B86073E
:101C90003E97832744FE86073E86BA85032584FD4A
:101CA000EF508016832744FE8607032784FDB30682
:101CB000F7008327C4FD8C47832744FD984383277F
:101CC00044FEB307F74086073E863685EF50C013C3
:101CD00089A88327C4FD98478327C4FD9C4B8A07A6
:101CE0003E97832744FE8A073E86BA85032584FDF6
:101CF000EF508011832744FE8A07032784FDB30633
:101D0000F7008327C4FD8C47832744FD984383272E
:101D100044FEB307F7408A073E863685EF50C00E73
:101D20000100832704FDB5E78327C4FD83C70700AF
:101D3000858B93F7F70F89C789472326F4FE91A86F
:101D40008327C4FD83C7070093E7170013F7F70F36
:101D50008327C4FD2380E700832744FD9C43BE8581
:101D60000325C4FDEFF07F8F8327C4FDD84B832765
:101D700044FD9C433E978327C4FDD8CB8327C4FDF5
:101D800083C70700F99B13F7F70F8327C4FD238050
:101D9000E7008327C4FD83C70700918B13F7F70F74
:101DA0008327C4FD2380E7008327C4FE3E85B2500D
:101DB000225445618280411122C6000899679387A9
:101DC00087087390078001003244410182804111ED
:101DD00022C60008996773900780010032444101D0
:101DE0008280011106CE22CC00102326A4FE832778
:101DF000C4FE99C783A701841387F7FF23A0E1845A
:101E000083A7018491E3453F0100F24062440561EC
:101E10008280411106C622C4000883A7018491E391
:101E20007D3783A701841387170023A0E18483A74C
:101E300001843E85B240224441018280411106C6A0
:101E400022C400080145713F0100B2402244410113
:101E500082801D71A2CE82E686E48AE28EE012FEC6
:101E600016FC1AFA1EF82AF62EF432F236F03AEE82
:101E70003EEC42EA46E872E676E47AE27EE08010E2
:101E800093055052B747014013850780EF10500962
:101E9000AA8789CB93055052B74701401385078025
:101EA000EF103018010076443660A6601661866136
:101EB0007272E2725273C2733275A27512768276B2
:101EC0007267E2675268C268326EA26E126F826FEA
:101ED0002561730020301D71A2CE82E686E48AE27D
:101EE0008EE012FE16FC1AFA1EF82AF62EF432F2D2
:101EF00036F03AEE3EEC42EA46E872E676E47AE202
:101F00007EE0801093055052B7470040138507408C
:101F1000EF101001AA8789CB93055052B7470040B4
:101F200013850740EF10F00F010076443660A6607D
:101F3000166186617272E2725273C2733275A27553
:101F4000127682767267E2675268C268326EA26E5B
:101F5000126F826F2561730020301D71A2CE82E660
:101F600086E48AE28EE012FE16FC1AFA1EF82AF6C1
:101F70002EF432F236F03AEE3EEC42EA46E872E6F1
:101F800076E47AE27EE0801093055052B757004025
:101F900013850780EF10C078AA8789CB930550522C
:101FA000B757004013850780EF10B0070100764453
:101FB0003660A660166186617272E2725273C273F5
:101FC0003275A275127682767267E2675268C268CD
:101FD000326EA26E126F826F2561730020301D7108
:101FE000A2CE82E686E48AE28EE012FE16FC1AFA9F
:101FF0001EF82AF62EF432F236F03AEE3EEC42EAC1
:1020000046E872E676E47AE27EE08010930550526C
:10201000B7570040138507C0EF108070AA8789CB9F
:1020200093055052B7570040138507C0EF10607FEB
:10203000010076443660A660166186617272E272B3
:102040005273C2733275A275127682767267E26736
:102050005268C268326EA26E126F826F2561730081
:1020600020301D71A2CE82E686E48AE28EE012FE66
:1020700016FC1AFA1EF82AF62EF432F236F03AEE70
:102080003EEC42EA46E872E676E47AE27EE08010D0
:102090009305505237550040EF108068AA8781CFD2
:1020A000B707002083A7872382979305505237559F
:1020B0000040EF100077010076443660A66016619C
:1020C00086617272E2725273C2733275A2751276B1
:1020D00082767267E2675268C268326EA26E126FD1
:1020E000826F2561730020301D71A2CE82E686E4E6
:1020F0008AE28EE012FE16FC1AFA1EF82AF62EF478
:1021000032F236F03AEE3EEC42EA46E872E676E427
:102110007AE27EE0801093055052B7270040138585
:102120000780EF10E05FAA8789CB93055052B7274D
:10213000004013850780EF10C06E010076443660C2
:10214000A660166186617272E2725273C273327552
:10215000A275127682767267E2675268C268326E42
:10216000A26E126F826F2561730020301D71A2CEA6
:1021700082E686E48AE28EE012FE16FC1AFA1EF867
:102180002AF62EF432F236F03AEE3EEC42EA46E817
:1021900072E676E47AE27EE0801093055052B7272B
:1021A0000040138507C0EF10A057AA8781CF83A7EF
:1021B0008180829793055052B7270040138507C04E
:1021C000EF102066010076443660A66016618661D5
:1021D0007272E2725273C2733275A275127682768F
:1021E0007267E2675268C268326EA26E126F826FC7
:1021F0002561730020301D71A2CE82E686E48AE25A
:102200008EE012FE16FC1AFA1EF82AF62EF432F2AE
:1022100036F03AEE3EEC42EA46E872E676E47AE2DE
:102220007EE080109305505237250040EF10404F5C
:10223000AA8789CBEFE07F8893055052372500406D
:10224000EF10205E010076443660A660166186615C
:102250007272E2725273C2733275A275127682760E
:102260007267E2675268C268326EA26E126F826F46
:102270002561730020301D71A2CE82E686E48AE2D9
:102280008EE012FE16FC1AFA1EF82AF62EF432F22E
:1022900036F03AEE3EEC42EA46E872E676E47AE25E
:1022A0007EE08010B707055083C7070193F7F70F4B
:1022B000918B9DC3B707002083A7C7238297B707D9
:1022C000055083C7070113F7F70FB70705506D9B3C
:1022D0001377F70F2388E700010076443660A66085
:1022E000166186617272E2725273C2733275A275A0
:1022F000127682767267E2675268C268326EA26EA8
:10230000126F826F2561730020301D71A2CE82E6AC
:1023100086E48AE28EE012FE16FC1AFA1EF82AF60D
:102320002EF432F236F03AEE3EEC42EA46E872E63D
:1023300076E47AE27EE080100545EF0070212A877E
:1023400085476315F7000545EF00F0250100764449
:102350003660A660166186617272E2725273C27351
:102360003275A275127682767267E2675268C26829
:10237000326EA26E126F826F2561730020301D7164
:10238000A2CE82E686E48AE28EE012FE16FC1AFAFB
:102390001EF82AF62EF432F236F03AEE3EEC42EA1D
:1023A00046E872E676E47AE27EE080100945EF00C6
:1023B000301A2A8785476315F7000945EF00B01EDC
:1023C000010076443660A660166186617272E27220
:1023D0005273C2733275A275127682767267E267A3
:1023E0005268C268326EA26E126F826F25617300EE
:1023F00020301D71A2CE82E686E48AE28EE012FED3
:1024000016FC1AFA1EF82AF62EF432F236F03AEEDC
:102410003EEC42EA46E872E676E47AE27EE080103C
:102420001145EF00F0122A8785476315F700114523
:10243000EF007017010076443660A6601661866171
:102440007272E2725273C2733275A275127682761C
:102450007267E2675268C268326EA26E126F826F54
:102460002561730020301D71A2CE82E686E48AE2E7
:102470008EE012FE16FC1AFA1EF82AF62EF432F23C
:1024800036F03AEE3EEC42EA46E872E676E47AE26C
:102490007EE080102145EF00B00B2A878547631549
:1024A000F7002145EF003010010076443660A66049
:1024B000166186617272E2725273C2733275A275CE
:1024C000127682767267E2675268C268326EA26ED6
:1024D000126F826F2561730020301D71A2CE82E6DB
:1024E00086E48AE28EE012FE16FC1AFA1EF82AF63C
:1024F0002EF432F236F03AEE3EEC42EA46E872E66C
:1025000076E47AE27EE080104145EF0070042A878D
:1025100085476315F7004145EF00F0080100764458
:102520003660A660166186617272E2725273C2737F
:102530003275A275127682767267E2675268C26857
:10254000326EA26E126F826F2561730020301D7192
:10255000A2CE82E686E48AE28EE012FE16FC1AFA29
:102560001EF82AF62EF432F236F03AEE3EEC42EA4B
:1025700046E872E676E47AE27EE080101305000217
:10258000EF00007D2A8785476316F70013050002D8
:10259000EF00700113050004EF00807B2A87854758
:1025A0006316F70013050004EF00E07F1305000831
:1025B000EF00007A2A8785476316F70013050008A5
:1025C000EF00607E13050010EF0080782A878547B2
:1025D0006316F70013050010EF00E07C13050020E0
:1025E000EF0000772A8785476316F7001305002060
:1025F000EF00607B010076443660A660166186615C
:102600007272E2725273C2733275A275127682765A
:102610007267E2675268C268326EA26E126F826F92
:102620002561730020301D71A2CE82E686E48AE225
:102630008EE012FE16FC1AFA1EF82AF62EF432F27A
:1026400036F03AEE3EEC42EA46E872E676E47AE2AA
:102650007EE0801013050040E52D2A87854763152D
:10266000F700130500408127856713850780CD2576
:102670002A8785476316F700856713850780252716
:102680000565F9252A8785476314F7000565212F1D
:1026900009657D2D2A8785476314F7000965212781
:1026A00011657D252A8785476314F7001165E52D9F
:1026B0002165792D2A8785476314F7002165E52573
:1026C000010076443660A660166186617272E2721D
:1026D0005273C2733275A275127682767267E267A0
:1026E0005268C268326EA26E126F826F25617300EB
:1026F00020301D71A2CE82E686E48AE28EE012FED0
:1027000016FC1AFA1EF82AF62EF432F236F03AEED9
:102710003EEC42EA46E872E676E47AE27EE0801039
:102720008545B7370140138507C0EF001045AA87DC
:1027300081CB8545B7370140138507C0EF00F04ACC
:10274000010076443660A660166186617272E2729C
:102750005273C2733275A275127682767267E2671F
:102760005268C268326EA26E126F826F256173006A
:1027700020301D71A2CE82E686E48AE28EE012FE4F
:1027800016FC1AFA1EF82AF62EF432F236F03AEE59
:102790003EEC42EA46E872E676E47AE27EE08010B9
:1027A000854537050040EF00503DAA8791C7854514
:1027B00037050040EF007043010076443660A660A4
:1027C000166186617272E2725273C2733275A275BB
:1027D000127682767267E2675268C268326EA26EC3
:1027E000126F826F2561730020301D71A2CE82E6C8
:1027F00086E48AE28EE012FE16FC1AFA1EF82AF629
:102800002EF432F236F03AEE3EEC42EA46E872E658
:1028100076E47AE27EE080108545B70700401385B4
:102820000740EF009035AA8781CB8545B707004068
:1028300013850740EF00703B010076443660A660C8
:10284000166186617272E2725273C2733275A2753A
:10285000127682767267E2675268C268326EA26E42
:10286000126F826F2561730020301D71A2CE82E647
:1028700086E48AE28EE012FE16FC1AFA1EF82AF6A8
:102880002EF432F236F03AEE3EEC42EA46E872E6D8
:1028900076E47AE27EE080108545B7170040138524
:1028A0000780EF00902DAA8781CB8545B7170040A0
:1028B00013850780EF007033010076443660A66010
:1028C000166186617272E2725273C2733275A275BA
:1028D000127682767267E2675268C268326EA26EC2
:1028E000126F826F2561730020301D71A2CE82E6C7
:1028F00086E48AE28EE012FE16FC1AFA1EF82AF628
:102900002EF432F236F03AEE3EEC42EA46E872E657
:1029100076E47AE27EE080108545B71700401385A3
:1029200007C0EF009025AA8781CB8545B7170040E7
:10293000138507C0EF00702B010076443660A66057
:10294000166186617272E2725273C2733275A27539
:10295000127682767267E2675268C268326EA26E41
:10296000126F826F2561730020301D71A2CE82E646
:1029700086E48AE28EE012FE16FC1AFA1EF82AF6A7
:102980002EF432F236F03AEE3EEC42EA46E872E6D7
:1029900076E47AE27EE08010854537150040EF004E
:1029A000D01DAA8791C7854537150040EF00F02359
:1029B000010076443660A660166186617272E2722A
:1029C0005273C2733275A275127682767267E267AD
:1029D0005268C268326EA26E126F826F25617300F8
:1029E00020301D71A2CE82E686E48AE28EE012FEDD
:1029F00016FC1AFA1EF82AF62EF432F236F03AEEE7
:102A00003EEC42EA46E872E676E47AE27EE0801046
:102A10008545B717004013850740EF001016AA87B9
:102A200081CB8545B717004013850740EF00F01BA9
:102A3000010076443660A660166186617272E272A9
:102A40005273C2733275A275127682767267E2672C
:102A50005268C268326EA26E126F826F2561730077
:102A600020301D71A2CE82E686E48AE28EE012FE5C
:102A700016FC1AFA1EF82AF62EF432F236F03AEE66
:102A80003EEC42EA46E872E676E47AE27EE08010C6
:102A90008545B737014013850740EF00100EAA8720
:102AA00081CB8545B737014013850740EF00F01310
:102AB000010076443660A660166186617272E27229
:102AC0005273C2733275A275127682767267E267AC
:102AD0005268C268326EA26E126F826F25617300F7
:102AE00020301D71A2CE82E686E48AE28EE012FEDC
:102AF00016FC1AFA1EF82AF62EF432F236F03AEEE6
:102B00003EEC42EA46E872E676E47AE27EE0801045
:102B10008545B7570140138507C0EF001006AA8707
:102B200081CB8545B7570140138507C0EF00F00BF7
:102B3000010076443660A660166186617272E272A8
:102B40005273C2733275A275127682767267E2672B
:102B50005268C268326EA26E126F826F2561730076
:102B600020301D71A2CE82E686E48AE28EE012FE5B
:102B700016FC1AFA1EF82AF62EF432F236F03AEE65
:102B80003EEC42EA46E872E676E47AE27EE08010C5
:102B9000854537550140EF00407EAA8791C785459E
:102BA00037550140EF007004010076443660A6609E
:102BB000166186617272E2725273C2733275A275C7
:102BC000127682767267E2675268C268326EA26ECF
:102BD000126F826F256173002030411122C60008F8
:102BE00001003244410173002030411122C6000827
:102BF00001A0411106C622C40008B74795081385F5
:102C00000740EFE0CFA1EFE01F9C01A001A001A0D1
:102C100001A001A001A001A001A001A001A001A0AC
:102C200001A001A001A001A001A001A001A001A09C
:102C300001A001A001A001A001A001A001A001A08C
:102C400001A001A001A001A001A001A001A001A07C
:102C500001A001A001A001A001A001A001A001A06C
:102C600001A001A001A001A001A001A001A001A05C
:102C700001A001A001A001A001A001A001A001A04C
:102C800001A001A001A001A001A001A001A001A03C
:102C900001A001A001A001A001A001A001A001A02C
:102CA00001A001A001A001A001A001A001A001A01C
:102CB00001A001A001A001A001A001A001A001A00C
:102CC00001A001A001A001A001A097E1FF1F938135
:102CD000E1D617D100201301E1321785000013055A
:102CE000A5F797D5FF1F9385E5311386018363FA16
:102CF000C5008322050023A0550011059105E3EAD4
:102D0000C5FE138501839385419A6377B50023201F
:102D100005001105E36DB5FEFD42739002BCFD4256
:102D200073904280B76200009382820873A00230E1
:102D300097D2FFFF9382823093E232007390523039
:102D400097020000938222EB7390123473002030BC
:102D5000797122D60018232EA4FC232604FE2324F6
:102D600004FEB7070140938707409C430327C4FD37
:102D7000F98F2324F4FEB707014093870740D84B0F
:102D80008327C4FDF98F81CB832784FE89C78547BC
:102D90002326F4FE19A0232604FE8327C4FE3E85C5
:102DA000325445618280011122CE00102326A4FEF8
:102DB000B7070140938707400327C4FED8CB010023
:102DC000724405618280397122DE80002326A4FCD2
:102DD0002324B4FC232604FE232004FE232404FE23
:102DE000232E04FC232204FE232C04FC832784FCD2
:102DF0009C47BD8B2326F4FE832784FC9C47C18B14
:102E000089CB832784FCDC430327C4FED98F232688
:102E1000F4FE832784FC83D7070093F7F70FF1CFE5
:102E20008327C4FC9C432322F4FE232404FE65A8CC
:102E3000832784FE0547B317F700232EF4FC83276E
:102E400084FC83D707003E878327C4FDF98F2320A6
:102E5000F4FE032704FE8327C4FD6311F7088327CC
:102E600084FE8A07232EF4FC8327C4FD3D47B31755
:102E7000F700232CF4FC832784FD93C7F7FF032777
:102E800044FEF98F2322F4FE8327C4FD0327C4FEEA
:102E9000B317F700032744FED98F2322F4FE8327BC
:102EA00084FC984793078002631BF700832784FE06
:102EB00005473317F7008327C4FCD8CB05A0832729
:102EC00084FC984793078004631AF700832784FEE5
:102ED00005473317F7008327C4FC98CB832784FE6C
:102EE00085072324F4FE032784FE9D47E3F2E7F4DD
:102EF0008327C4FC032744FE98C3832784FC03D79D
:102F000007009307F00F63F1E70E8327C4FCDC434F
:102F10002322F4FE232404FE75A8832784FEA10740
:102F20000547B317F700232EF4FC832784FC83D7CF
:102F300007003E878327C4FDF98F2320F4FE032773
:102F400004FE8327C4FD6312F708832784FE8A07E3
:102F5000232EF4FC8327C4FD3D47B317F700232C31
:102F6000F4FC832784FD93C7F7FF032744FEF98F02
:102F70002322F4FE8327C4FD0327C4FEB317F70002
:102F8000032744FED98F2322F4FE832784FC98472D
:102F900093078002631BF700832784FEA107054780
:102FA0003317F7008327C4FCD8CB832784FC9847CA
:102FB00093078004631BF700832784FEA10705475E
:102FC0003317F7008327C4FC98CB832784FE85073B
:102FD0002324F4FE032784FE9D47E3F0E7F48327D0
:102FE000C4FC032744FED8C30100725421618280CF
:102FF000011122CE00102326A4FEAE872322C4FE98
:103000002315F4FE832744FE99C70357A4FE8327A4
:10301000C4FE98CB31A00357A4FE8327C4FED8CBAF
:103020000100724405618280397122DE800023260E
:10303000A4FC232204FE232604FE232004FE232EC8
:1030400004FC232404FEB7170240DC43B18B232287
:10305000F4FE032744FE91476303F702032744FE6F
:10306000A1476306F702832744FE63990714832769
:10307000C4FC37177A001307072098C389AA83274F
:10308000C4FC37177A001307072098C389A2B71723
:103090000240D843B7073C00F98F2326F4FEB71748
:1030A0000240D843C167F98F2320F4FE8327C4FE72
:1030B000C98389072326F4FEB7F7FF1F9387C770DC
:1030C00098439167F98F91EB0327C4FEC5476319B5
:1030D000F704C9472326F4FEA1A00327C4FE8947AD
:1030E0006315F700C9472326F4FE0327C4FEBD4736
:1030F0006318F700B5472326F4FE85472324F4FE22
:103100000327C4FEC1476315F700BD472326F4FE1D
:103110000327C4FEC5476315F700C1472326F4FE05
:10312000832704FEA1E3B7470240938707809C43AF
:10313000C18B89CF0327C4FEB7177A009387072076
:103140003307F7028327C4FC98C399A80327C4FE5A
:10315000B7173D00938707903307F7028327C4FC16
:1031600098C33DA8B7170240D843B7070200F98FAC
:1031700089CF0327C4FEB7173D0093870790330715
:10318000F7028327C4FC98C321A80327C4FEB717FE
:103190007A00938707203307F7028327C4FC98C37C
:1031A000032784FE85476313F7028327C4FC9C43EF
:1031B00013D717008327C4FC98C309A88327C4FC2E
:1031C00037177A001307072098C311A00100B7171B
:1031D0000240DC4393F7070F2322F4FE832744FECB
:1031E00091832322F4FEB70700201387470183272A
:1031F00044FEBA9783C7070093F7F70F232EF4FC1A
:103200008327C4FC98438327C4FD3357F7008327E3
:10321000C4FCD8C3B7170240DC4393F707702322DE
:10322000F4FE832744FEA1832322F4FEB707002087
:1032300013874701832744FEBA9783C7070093F794
:10324000F70F232EF4FC8327C4FCD8438327C4FD47
:103250003357F7008327C4FC98C7B7170240D843F9
:10326000916793870780F98F2322F4FE832744FE1A
:10327000AD832322F4FEB70700201387470183277D
:1032800044FEBA9783C7070093F7F70F232EF4FC89
:103290008327C4FCD8438327C4FD3357F700832713
:1032A000C4FCD8C7B7170240D843B167F98F2322AF
:1032B000F4FE832744FEB9832322F4FE1387418161
:1032C000832744FEBA9783C7070093F7F70F232E8F
:1032D000F4FC8327C4FCD8478327C4FD3357F70287
:1032E0008327C4FC98CB01007254216182800111B4
:1032F00022CE00102326A4FE2324B4FE832784FEBE
:1033000099CBB7170240944FB71702400327C4FE6A
:10331000558F98CF21A8B7170240944F8327C4FE3A
:1033200013C7F7FFB7170240758F98CF010072449B
:1033300005618280011122CE00102326A4FE2324E1
:10334000B4FE832784FE99CBB7170240D44FB7173A
:1033500002400327C4FE558FD8CF21A8B7170240DB
:10336000D44F8327C4FE13C7F7FFB7170240758FEA
:10337000D8CF0100724405618280797122D600188D
:10338000232EA4FCAE87231DF4FC232604FE231564
:1033900004FE231404FE8327C4FD83D7070113977B
:1033A000070141838357A4FDF98F2315F4FE83277A
:1033B000C4FD83D7C7001397070141838357A4FD3A
:1033C000F98F2314F4FE8357A4FE81CB835784FE28
:1033D00089C785472326F4FE19A0232604FE8327E8
:1033E000C4FE3E85325445618280011122CE001018
:1033F0002326A4FEAE872315F4FE8357A4FE93C7AD
:10340000F7FF1397070141838327C4FE2398E70042
:1034100001007244056182805D7186C6A2C4800885
:10342000232EA4FA232CB4FA232604FE232404FE1C
:10343000232204FE232004FE232E04FC8327C4FB46
:10344000232EF4FC8327C4FB83D70701C207C18363
:103450002326F4FE0327C4FEB567FD17F98F232644
:10346000F4FE832784FB83D767003E878327C4FE4F
:10347000D98F2326F4FE8327C4FE139707014183C7
:103480008327C4FB2398E7008327C4FB83D7C700A7
:10349000C207C1832326F4FE0327C4FEBD679387BA
:1034A000379FF98F2326F4FE832784FB03D7470039
:1034B000832784FB83D78700D98F13970701418324
:1034C000832784FB83D7A700D98FC207C1833E8798
:1034D0008327C4FED98F2326F4FE8327C4FE1397C7
:1034E000070141838327C4FB2396E7008327C4FB9E
:1034F00083D74701C207C1832326F4FE0327C4FEF6
:10350000C1679387F7CFF98F2326F4FE832784FBC7
:1035100083D7C7003E878327C4FED98F2326F4FEB6
:103520008327C4FE1397070141838327C4FB239A93
:10353000E700930784FC3E85EFF01FAF0327C4FD2F
:10354000B7470140938707806317F700832744FD3F
:103550002324F4FE29A0832704FD2324F4FE8327DB
:10356000C4FB83D7C700C207C183C207C18763D228
:103570000702032784FEBA878607BA978E073E970D
:10358000832784FB9C438607B357F7022322F4FE6C
:1035900005A0032784FEBA878607BA978E073E9751
:1035A000832784FB9C438A07B357F7022322F4FE48
:1035B000032744FE93074006B357F70292072326DA
:1035C000F4FE8327C4FE13D7470093074006B307D2
:1035D000F702032744FEB307F7402320F4FE8327B6
:1035E000C4FB83D7C700C207C183C207C18763D2A8
:1035F0000702832704FE8E071387270393074006DD
:10360000B357F7029D8B0327C4FED98F2326F4FE00
:1036100005A0832704FE920713872703930740061C
:10362000B357F702BD8B0327C4FED98F2326F4FEC0
:103630008327C4FE1397070141838327C4FB239488
:10364000E7000100B640264461618280011122CE6C
:1036500000102326A4FE2324B4FE832784FE95C3F2
:103660008327C4FE83D7C700139707014183896767
:10367000D98F1397070141838327C4FE2396E70060
:1036800015A08327C4FE83D7C70013970701418382
:10369000F977FD17F98F1397070141838327C4FE3C
:1036A0002396E7000100724405618280011122CE59
:1036B00000102326A4FEAE872315F4FE8357A4FE34
:1036C00093F7F71F1397070141838327C4FE2392C3
:1036D000E7000100724405618280797122D60018EA
:1036E000232EA4FCAE87231DF4FC232604FE83278F
:1036F000C4FD83D707001397070141838357A4FDB7
:10370000F98FC207C18389C785472326F4FE19A014
:10371000232604FE8327C4FE3E8532544561828001
:10372000797122D60018232EA4FCAE87231DF4FC49
:10373000232204FE232604FE232004FE232404FE69
:103740008357A4FD93F7F70F958393F7F70F232083
:10375000F4FE8357A4FDFD8B2326F4FE8327C4FECD
:103760000547B317F7002326F4FE032704FE854719
:10377000631FF7008327C4FD83D7C700C207C18337
:103780003E878327C4FEF98F2326F4FE3DA8032736
:1037900004FE8947631FF7008327C4FD83D7070111
:1037A000C207C1833E878327C4FEF98F2326F4FE18
:1037B00029A88327C4FD83D74701C207C1833E8759
:1037C0008327C4FEF98F2326F4FE8357A4FDA1832B
:1037D000C207C1832322F4FE832744FE0547B317A3
:1037E000F7002322F4FE8327C4FD83D70700C20716
:1037F000C1833E87832744FEF98F2322F4FE83276B
:10380000C4FE81CB832744FE89C785472324F4FE69
:1038100019A0232404FE832784FE3E85325445618B
:103820008280797122D60018232EA4FCAE87231D36
:10383000F4FC231704FE231604FE8357A4FDA18382
:103840002317F4FE8357E4FE0547B317F70023164A
:10385000F4FE8357C4FE93C7F7FF13970701418314
:103860008327C4FD2390E700010032544561828024
:10387000011122CE0010AA87A307F4FEB70700505B
:103880000347F4FE42074183239AE702B70700503B
:1038900083C7670313F7F70FB7070050719B1377C0
:1038A000F70F238BE702010072440561828001114A
:1038B00022CE0010AA87A307F4FEB70700500347E3
:1038C000F4FE42074183239CE702B707005083C7F9
:1038D000A70313F7F70FB7070050719B1377F70F84
:1038E000238DE7020100724405618280797106D65A
:1038F00022D40018AA87A30FF4FCA30704FE15A87E
:1039000003A701858347F4FEBA9703C7070083A680
:1039100001858347F4FE93870704B6971347F7FFA3
:103920001377F70F2380E7008347F4FE8507A3078B
:10393000F4FE0347F4FE8347F4FDE363F7FC83479B
:10394000F4FD3E8535370100B25022544561828036
:10395000797106D622D40018AA87A30FF4FCA30716
:1039600004FE15A803A741858347F4FEBA9703C751
:10397000070083A641858347F4FE93870704B69723
:103980001347F7FF1377F70F2380E7008347F4FE11
:103990008507A307F4FE0347F4FE8347F4FDE363C2
:1039A000F7FC8347F4FD3E8519370100B2502254DD
:1039B000456182805971A2D682EE86EC8AEA8EE851
:1039C00092E696E49AE29EE02AFE2EFC32FA36F85F
:1039D0003AF63EF442F246F072EE76EC7AEA7EE88F
:1039E0008018230F04F8B707005083C76700A30EA1
:1039F000F4F88347D4F9898BE38A073CB707005072
:103A000083C7770093F7F70F93F707034147E384E2
:103A1000E73A41476346F700E38E07206F00F0392D
:103A200013070002E386E70413070003E397E73870
:103A3000B707005019472389E702B707005011471D
:103A4000A389E70283A7C18403C7670083C7770000
:103A5000A207D98F1397070141832391E18683A79A
:103A6000C18403C717002380E18683A7C18483C76D
:103A70000700230EF4F8A30F04F8230F04F883A71C
:103A8000C18483C7070093F70706638B071283C7B8
:103A9000018693F7F70F93F70702D5C383C7018613
:103AA00093F7F70F13071002638BE7001307200249
:103AB0006389E708130700026387E708ADA8138747
:103AC000C18123ACE1849D47A30FF4F883D72186FD
:103AD0001397070141839D4763E9E70083D7218658
:103AE000C207C18393F7F70F11A0A147A30FF4F802
:103AF00003A7C18483A781858346F4F93686BE85F2
:103B00003A85EF30603083D72186139707014183D0
:103B10008347F4F9C207C183B307F740139707013E
:103B200041832391E18603A781858347F4F93E977A
:103B300023ACE18411A8FD57230FF4F831A0010054
:103B400021A0010011A001000347E4F99307F00F41
:103B50006303F7688347F4F913970701418383D719
:103B60002186C207C1836379F7008347F4F913976D
:103B7000070141832391E18683D7C185139707010C
:103B800041839D4763E9E70083D7C185C207C183AD
:103B900093F7F70F11A0A147A30FF4F883A781852E
:103BA0000347F4F93A86BE8513854184EF30C0257A
:103BB00003A781858347F4F93E9723ACE18421ADC7
:103BC00083C7018693F7F70F2D47636BF75E139753
:103BD0002700A9679387076FBA979C43828783A7BB
:103BE000C18403C7270083C73700A207D98FC20744
:103BF000C183A183C207C183130720026365F71243
:103C000013972700A96793870772BA979C43828707
:103C100029671307476423ACE184C947A30FF4F86D
:103C200039A229671307876523ACE1849307300421
:103C3000A30FF4F8EDA883A7C18403C7270083C7A7
:103C40003700A207D98FC207C18393F7F70F054743
:103C50006386E70205476344F70089CB99A80947C3
:103C60006387E7020D47638DE702A1A01387818276
:103C700023ACE1849147A30FF4F881A029671307CF
:103C8000076B23ACE184B947A30FF4F83DA0296783
:103C90001307076C23ACE184B147A30FF4F831A8F4
:103CA00029671307C76C23ACE184D947A30FF4F845
:103CB00029A0FD57230FF4F8010095A829671307E1
:103CC000C76923ACE184D147A30FF4F88DA029671D
:103CD0001307476E23ACE184A947A30FF4F881A82A
:103CE00083C7818193F7F70F9DE713061004A96737
:103CF0009385A765B707002013856702EF30C010D2
:103D0000370700201307470223ACE18493073004F0
:103D1000A30FF4F829A8FD57230FF4F809A8FD57BD
:103D2000230FF4F829A0FD57230FF4F8010083476F
:103D3000F4F913970701418383D72186C207C18312
:103D40006379F7008347F4F91397070141832391BF
:103D5000E18683D721861397070141839D4763E955
:103D6000E70083D72186C207C18393F7F70F11A01D
:103D7000A147A30FF4F803A7C18483A781858346D5
:103D8000F4F93686BE853A85EF30000803A78185B1
:103D90008347F4F93E9723ACE18435A983A7C18416
:103DA00003C7270083C73700A207D98FC207C18383
:103DB00093F7F70F1397070141832391E18621A918
:103DC00083A7C18403C7F1851377F70F2380E7002A
:103DD00083D72186139707014183854763F6E73E22
:103DE00005472391E186CDA683A7C18403C7270099
:103DF00083C73700A207D98FC207C18313F7F70F14
:103E0000A38FE184C9AE83A7C18483C7070013F7DA
:103E1000F7018947631FF70C83A7C18403C74700D5
:103E200083C75700A207D98FC207C18393F7F70F43
:103E300009476388E70409476346F7000547638736
:103E4000E7085DA013071008638BE7041307200839
:103E5000639CE708B707005083C7A70393F7F70FE2
:103E6000E207E187E19BE207E18793E727001397E9
:103E700087016187B70700501377F70F238DE7029B
:103E8000ADA8B707005083C7B70313F7F70FB707FD
:103E90000050619B1377F70FA38DE702B9A8B7070E
:103EA000005083C7670393F7F70FE207E187E19BB1
:103EB000E207E18793E72700139787016187B70738
:103EC00000501377F70F238BE70205A8B7070050C0
:103ED00083C7770313F7F70FB7070050619B13777A
:103EE000F70FA38BE70211A8FD57230FF4F8010089
:103EF00029A0FD57230FF4F8F9ACF1AC9387418466
:103F000083C70700FD8BA1E39387418403C7270084
:103F100083C73700A207D98F1397070141838547CD
:103F2000631FF7009307000A93F7070289C7054745
:103F3000238FE1844DA4FD57230FF4F869ACFD579E
:103F4000230FF4F849AC9387418483C7070013F724
:103F5000F7018947631CF7109387418403C7270043
:103F600083C73700A207D98FC207C183E5EF9387C4
:103F7000418403C7470083C75700A207D98FC207F0
:103F8000C18393F7F70F09476387E704094763463F
:103F9000F7000547638DE708C9A01307100863827F
:103FA000E70613072008639AE70AB707005083C79C
:103FB000A70393F7F70F37070050F19B93F7F70F1D
:103FC000230DF7023707005093E7370093F7F70FF9
:103FD000230DF70245A0B707005083C7B70393F737
:103FE000F70F37070050F19B93F7F70FA30DF70278
:103FF0003707005093E7370093F7F70FA30DF70249
:1040000095A8B707005083C7670393F7F70F3707E3
:104010000050F19B93F7F70F230BF702370700507F
:1040200093E7370093F7F70F230BF702A1A0B70729
:10403000005083C7770393F7F70F37070050F19BC2
:1040400093F7F70FA30BF7023707005093E73700FA
:1040500093F7F70FA30BF70231A8FD57230FF4F8DE
:10406000010009A8FD57230FF4F8B5A2FD57230F4F
:10407000F4F895A28DA283A7C1842380070083D77B
:104080002186139707014183854763F1E7140547AC
:104090002391E18625AA2382018483D7C1851397C2
:1040A00007014183854763F5E7120547239EE184B5
:1040B00005A22382018493874184A380070093870C
:1040C000418403C7470083C75700A207D98F1397BE
:1040D00007014183930710086311F702B7070050E7
:1040E00083C7670393F7F70F13F737008D47631DF7
:1040F000F70A05472382E18445A89387418403C7D3
:10410000470083C75700A207D98F13970701418340
:1041100085476311F702B707005083C7770393F70A
:10412000F70F13F737008D476310F7080547238211
:10413000E1849DA89387418403C7470083C7570044
:10414000A207D98F139707014183930720086311B2
:10415000F702B707005083C7A70393F7F70F13F7CA
:1041600037008D476312F70405472382E1842DA8A9
:104170009387418403C7470083C75700A207D98F9D
:1041800013970701418389476310F702B70700506F
:1041900083C7B70393F7F70F13F737008D476315FE
:1041A000F70005472382E18483D7C1851397070170
:1041B0004183894763F0E7020947239EE18419A8F8
:1041C000FD57230FF4F801A8010031A0010021A040
:1041D000010011A001000347E4F99307F00F631DEC
:1041E000F700B70700501D472389E702B7070050C3
:1041F0001D47A389E702E9A68307C4F963D507042D
:1042000083D72186139707014183A14763E9E7001C
:1042100083D72186C207C18393F7F70F11A0A14767
:10422000A30FF4F883D721861397070141838347AF
:10423000F4F9C207C183B307F7401397070141831D
:104240002391E18619A0A30F04F8B7070050034794
:10425000F4F9420741832398E702B707005011475A
:104260002389E702B70700501147A389E70289AE07
:10427000B707005083C7770093F7F70F93F7F7035B
:10428000130710026385E71213072002638DE714FA
:1042900013070002639EE71883C7018693F7F70FA1
:1042A00015476380E70A19476394E70E83D7218691
:1042B0001397070141839D4763E9E70083D7218670
:1042C000C207C18393F7F70F11A0A147A30FF4F81A
:1042D00003A7C18483A781858346F4F93686BE850A
:1042E0003A85EF20703283D72186139707014183E7
:1042F0008347F4F9C207C183B307F7401397070157
:1043000041832391E18603A781858347F4F93E9792
:1043100023ACE184B70700500347F4F94207418317
:104320002398E702B707005083C7270313F7F70F57
:10433000B7070050134747001377F70F2389E702A9
:10434000B5A0B707005083C7370093F7F70FE20710
:10435000E18793F707F813978701618783D7218651
:10436000C207C183E207E187D98F1397870161876D
:10437000B70700501377F70FA381E700B707005086
:1043800009472389E702B7070050A389070239A824
:10439000B707005023980702B70700500947238941
:1043A000E702B7070050A3890702010059A0B70729
:1043B000005083C7670313F7F70FB7070050719BCF
:1043C0001377F70F238BE702B707005083C7670304
:1043D00013F7F70FB7070050134747001377F70F8E
:1043E000238BE702B9A0B707005083C7A70313F7D1
:1043F000F70FB7070050134747001377F70F238DC8
:10440000E702B707005083C7A70393F7F70FE20748
:10441000E187F19BE207E18793E727001397870184
:104420006187B70700501377F70F238DE70211A0BC
:10443000010079A2B707005083C7770093F7F70F01
:1044400093F7F7030547638AE70C0947638CE71086
:104450006397071683C7018693F7F70F3E87930785
:1044600000026313F70A83A7C18483C7070085E3AB
:1044700083A7C18483C7170099EB83A7C18483C72F
:10448000270091E783A7C18483C737009DCF83A707
:10449000C18483C737001397870183A7C18483C76B
:1044A0002700C2075D8F83A7C18483C71700A207B7
:1044B000D98F03A7C18403470700D98FBE85A96799
:1044C0001385075EEF30003F3DA883A7C18483C7F3
:1044D0006700BE85A9671385075FEF30A03D83A7FE
:1044E000C18483C74700BE85A96713850760EF3085
:1044F000603C83A7C18483C75700BE85A967138525
:104500000761EF30203B0100B707005083D78700D9
:10451000C207C183A30FF4F871A8B707005083C77F
:10452000770093F7F70F93F70704D1C3B70700504D
:1045300083C7770313F7F70FB707005013474700F8
:104540001377F70FA38BE702B707005083D78700D5
:10455000C207C183A30FF4F88347F4F93E85EFF057
:10456000EFB8B1A0B707005083C7770093F7F70FF4
:1045700093F707049DCFB707005083C7B70313F71E
:10458000F70FB7070050134747001377F70FA38DB6
:10459000E702B707005083D78700C207C183A30F84
:1045A000F4F88347F4F93E85EFF08FBA19A00100C3
:1045B00039A0010029A0010021A0010011A00100E3
:1045C000B707005009472383E70079A08347D4F950
:1045D000858BB9CFB7070050A3810700B7070050FC
:1045E000A3890702B7070050A38B0702B707005043
:1045F000A38D0702B707005009472389E702B707D1
:1046000000500947238BE702B70700500947238D65
:10461000E702B707005083C7670013F7F70FB70724
:104620000050136717001377F70F2383E7002DA0BF
:104630008347D4F9918B99CBB707005083C75700B4
:10464000B707005011472383E70039A0B707005090
:104650000347D4F92383E700010036547660E6600F
:104660005661C6613662A662166386637275E2752C
:104670005276C2763277A27712788278726EE26EC4
:10468000526FC26F656173002030011106CE22CCDB
:1046900026CA4AC84EC652C4F3292000B7081000E3
:1046A000FD18B3F7B80013DE4601B3F8D80013D4F1
:1046B00045011353D6018E071357D5018E0813D920
:1046C000F5011374F47F9375FE7FFD82B3681301C7
:1046D0005D8F13183500131E36003303B440630595
:1046E000D91C6353601663870520B70680009307C3
:1046F000F07FB3E8D8006300F43E9307800363C8FB
:104700006738FD4763CC675293070002B387674061
:10471000B394F800B3566E00B317FE00D58C333E49
:10472000F000B3D86800B3E4C40133071741B30401
:10473000984033389800330707419317870063D8B0
:104740000724131A9700135A9A00630A0A305285F5
:10475000EF202064611593070002898F3317AA00A8
:10476000B3D7F400D98F339AA40063478530018D05
:1047700013071500FD4663CEE64893060002998EA6
:10478000B394D7003356EA00B316DA00D18CB336AF
:10479000D000D58C33D7E700B3E7E400F5CF93F72B
:1047A0007400939514001316170093D6F40113F5B3
:1047B0007500B296014311C909466383C9600D466D
:1047C00005436383C9626386096037060001F18E81
:1047D00013B61600E386070A01448947638EF9245D
:1047E0008D470543638AF926638C0922B707800049
:1047F000F98F19C213632300E387070605049307A3
:10480000F07F6308F41AB70780FFFD17F98F13983C
:10481000D7018D80A60733689800B1831374F47FA5
:104820001397C700520431837E09418F33672701F4
:104830004285BA8563150328F2406244D244424956
:10484000B249224A056182806314030C9307140065
:1048500093F7E77F6391072CB36E0701B3E7C801B5
:104860006314045C63860E4E638A074EB305C84129
:10487000B337B800330617411D8E9317860063D8EF
:10488000076EB3040E41B3379E003387E8401D8F97
:10489000B3E7E400368981F7014801440143B207D8
:1048A000B1831374F47FADBF63566012DDC9B706E0
:1048B00080009307F07FB3E8D800630EF4209307DD
:1048C000800363C66730FD4763DA673E930403FEE7
:1048D00093060002B3D79800630AD300930600043E
:1048E00033836640B3986800336E1E01B334C00151
:1048F000DD8CD5A4B3E7C8016380071A9307F3FFE3
:10490000638307489306F07F6307D31C3E83F5B3A8
:10491000B387854063110428336507012DC11385D2
:10492000F7FF630D05561303F07F638B6742AA8779
:10493000130680036348F6327D46634DF652130634
:1049400000021D8EB314C7003355F8003316C8009B
:10495000C98C3336C000B357F700D18CB388F84008
:1049600031A6B3E7C801638907129307F3FF638A8F
:1049700007369306F07F630ED34C3E8389B7130747
:10498000F07F638BE7624687F2843E843689B3E723
:10499000E400E30504E093F774000146E39F07E2B7
:1049A000B7078000F98F014381BD8D476380F90A05
:1049B0001543638B09108D476386F9108947638D12
:1049C000F93413635300B70700207D58FD17130413
:1049D000E07FF1B5631803169306140093F7E67FA2
:1049E00063970740B3660701631D0432B3E7C8014C
:1049F000638F064A63840736B304C801B3071701FF
:104A000033B804013387070193178700E3D607D82B
:104A1000B70780FFFD177D8F054493F77400B5BF7E
:104A200093F7F4009146E383D7DC93874400B3B453
:104A300097002697BE845DBB0543E30909DA938797
:104A40008400B3B497002697BE844DB37D57FD54C0
:104A50001304E07F01461543E30309FE41BB2685AD
:104A6000EF202033930785FF7D476105B397F4005E
:104A7000E353A7CEE35D85CE370780FF7D177D8F9B
:104A8000D284098CB3E7E400E30A04D029B7B3E881
:104A9000C801B334100161B99307F07F6303F330A9
:104AA000B70780001A84F98FC2840143B1B36388C9
:104AB0008546639F07460145B705F87F414373204C
:104AC00013009DBBE31F09EE136353001304F07F33
:104AD00081470148B1B333680701630C080237030B
:104AE00040000E05337367001318D7010D8113338F
:104AF00013003368A800935737001203B3E7070188
:104B0000F1D701491304F07FB7070800014809BB3A
:104B10003689014365BFB304C841B3379800330AEF
:104B20001741330AFA4093178A0063C5072EB3E78B
:104B30004401E39C07C01389E9FF133919000148B8
:104B40000144B1BBB3878540630B04123705800075
:104B50009306F07F498F638FD5349306800363C635
:104B6000F630FD4663CFF640930600029D8EB314E7
:104B7000D7003356F800B316D800D18CB336D00026
:104B8000B357F700D58CBE98F294B3B7C4013387FE
:104B900017012E84A9A0370380001305F07F336727
:104BA0006700E397A5D8B3E7C801BDD31318360053
:104BB0009397D80113583800139798003368F8007A
:104BC000368993D73800634E071A414305BFB3E8CF
:104BD000C801B3341001C29433B80401429793174B
:104BE0008700E3D607DA05049307F07F6307F40A2A
:104BF000B70780FFFD17F98F13D714008588D98C6C
:104C00001398F701B364980013D7170093F7740053
:104C100069B305159306000233D5A700630AD700D0
:104C2000930600043387E640B397E700336AFA003F
:104C3000B3374001C98FBE8401478DB6930403FE8C
:104C400093060002B3D79800630AD30093060004CA
:104C500033836640B3986800336E1E01B334C001DD
:104C6000DD8CF1B4B3640701B3349000B3049E400B
:104C7000B3379E003387F8402E8436897DBCB366F7
:104C80000701638D06249386F7FF638006321305C0
:104C9000F07F6381A722B687C9B5638A091A8D4759
:104CA000638CF93889476380F938E39009D001466D
:104CB000FD5415431304E07F7D5785BB9307000225
:104CC000B3876740B394F800B3566E00B317FE0085
:104CD000D58C333EF000B3D86800B3E4C4014697E6
:104CE000DDBDB304C801B307170133B8040133872E
:104CF0000701931787000544E3DF07C8B70780FF64
:104D0000FD17F98F1397F7018580D98C094413D7C4
:104D1000170093F7740051B113635300E30509CAF8
:104D200075B39307F07F6302F42C6384F52E6385DB
:104D30000622B3E8C801E39608DC13183500931780
:104D4000D701135838003368F800935737007DB304
:104D5000E38307DE8147468772883689C28491B42F
:104D6000B3E7C801E38607DA0E061398D8010D826F
:104D7000139798003368C80093D738003689E356F4
:104D800007E40143A5BBB304C841B3071741333857
:104D9000980033870741931787000544E3C3079AB8
:104DA000DDBEB3670701D5EB014701480143931707
:104DB000D701135838003368F800935737003DBBCC
:104DC0000543E30409A013B685FF13461600B29607
:104DD000EDBA13F6F5001145E309A69E93B5C5FF9C
:104DE00093C51500AE96D5B2E311099EE9BF9307AE
:104DF000F07F638DF60EB307C80133B807014697FD
:104E000042979314F7018583DD8C058393F7740033
:104E1000368461B6B3040E41B388E840B3379E00D0
:104E2000338AF840368915B21308F07F630E040DFB
:104E30006387050FE38F0EC6E39507CC0E051318A5
:104E4000D7010D813368A8009357370045B9154342
:104E5000B5B9B3670701E38E07CA37034000337360
:104E6000670013331300120399B7B3640701B33417
:104E7000900019BB138607FE130500023356C700C6
:104E8000638AA70013050004B307F540B317F700C2
:104E90003368F800B3340001D18CC9BBB3040E41B0
:104EA0003387E840B3379E001D8F3689EDB54687BE
:104EB000F284EDB0B3E7C801E38D07C437034000C7
:104EC0000E0633F368001398D8010D8213331300D4
:104ED0003368C80093D7380012030DB11307F07F71
:104EE0006389E70E4687F2843E8455B4E38109F670
:104EF0008D47E399F9DAE30C09F401461304E07FE6
:104F000015437D57FD54DDB0E3830EBA13149700AB
:104F10006343040041431308F07FE39F05F1638777
:104F200007129397980063C307004143E39B0EBCAD
:104F30000E061398D8010D823368C80093D7380045
:104F400036896DBE639A8500B3E7C80191C7939710
:104F5000980063C307004143131836009397D801A4
:104F6000135838003368F80093D7380041BEB3E7D0
:104F7000C500E38207BC2E8893F775003287C28490
:104F80000DB0938607FE13060002B356D700638A5E
:104F9000C70013060004B307F640B317F7003368E1
:104FA000F800B3340001D58CC5B6B304C8014697E8
:104FB000B3B7C4013E9735BB33E8C801630B08089B
:104FC0009397980046877288368963CE07004143DD
:104FD000F9BB33E8C8016305080893979800468732
:104FE0007288E3D607FE0143D9B3A9DE9317970071
:104FF00063C3070041439307F07FE39CF5D2B3E717
:10500000C801E38C07D29397980063DC0700A9D608
:10501000CDBCB3E7C801B1C393979800E3C907FEBD
:105020009DDA4143F9BCE31409E21304E07F7D57A4
:10503000FD5415436FF08FFCE30B09E01304E07F90
:10504000014615437D57FD546FF04FFAE3850EA6D8
:10505000F5B301473689014399BBE38F06EEF1B9F9
:1050600001470143A9B39316D70113D8340013069F
:10507000F07F33E8060193573700E301C4A805B079
:10508000B7078000F98F0144639806F6630603F6BC
:10509000136323006FF04FF6397126DA06DE22DC47
:1050A0004AD84ED652D456D25AD05ECE62CC66CAB8
:1050B000AA84732B200013D545011394C5001375E2
:1050C000F57F318013DAF50179C99307F07F630D1D
:1050D000F51093DBD4010E0433E48B00B70B800092
:1050E000139C3400B36B7401930915C08144814C47
:1050F000014993D746011394C60093F7F77FB28511
:10510000318093DAF601A5C31307F07F6380E704CB
:10511000131534001354D601498C938717C03705F3
:10512000800093153600498CB389F9400146B34697
:105130005A01BD47368863E6971C175700001307CE
:1051400027678A04BA949C40BA978287418E9389D4
:10515000198079CE9317C40093E434000D46E3C858
:1051600007FC4149E9B7B367C400CDCF63030436F8
:10517000228532C4EF10F0412246130755FFF54750
:10518000930585FF998F3314B400B357F6005D8CF7
:10519000B315B6004E959309353F014649BFB36B31
:1051A0009400638B0B0636C632C46302043022853A
:1051B000EF10303E2246B246AA89130755FFF54B41
:1051C000138C89FFB38BEB4033148401B3DB740180
:1051D000B3EB8B00339C84011305D0C0B309354178
:1051E0008144814C014931B7B36B9400638F0B004C
:1051F0009317C400268CA28BB1449309F07F8D4C89
:105200004149E3D807EE0149EDB5A144014C9309AA
:10521000F07F894C0149F1BD9144014C8149854C95
:105220000149C1BD93E4140001448145054601B71D
:1052300093E42400014481450946D5BD8146130706
:10524000F07FB70708000144B2075207B183FE069A
:10525000D98FD58F2285BE856312090AF250625418
:10526000D2544259B259225A925A025BF24B624CC2
:10527000D24C21618280014781470144F1B75288B5
:105280005E84E285668689476301F6528D47E307AF
:10529000F6FA85476300F64C1386F93F635AC02837
:1052A00093F77500639407428D81C286931774004B
:1052B00063D80700B70700FFFD177D8C13860940F0
:1052C0009307E07F63CBC72E1317D4019317940085
:1052D000B1833364B7001377F67FBDB71307F07F50
:1052E0008147014495B7568879BF136989009307B0
:1052F000F07FFE06D207D58F0145BE8573201900C9
:10530000B1BF636E7421638A8B20E287FD19014C63
:10531000220493D88501B3E8880013D3080133D45D
:105320006B02139E0801135E0E0113D70701939EB3
:105330008500B3FB6B0233068E02C20B3367770125
:10534000637BC70046979305F4FF636A172D637864
:10535000C72C79144697118F33556702C207C18352
:1053600033776702B302AE024207D98F63FB57005F
:10537000C6971307F5FF63E2172B63F0572A7915D9
:10538000C6974204C163498C1385F3FF3376A400AA
:105390009355040113DF0E0133F5AE00B30FC502C0
:1053A000B38757403306CF0213D70F01B382A5024C
:1053B00016963297B385E503637357009E95C162D5
:1053C000FD1213560701337757004207B3FF5F0002
:1053D0002E967E9763E4C7126380C7123307EC40B2
:1053E000918F333CEC00B38787411386F93F638F7D
:1053F000F82AB3D5670293560701B3F76702B30FD4
:10540000BE02C207D58F63FBF701C6979386F5FFEF
:1054100063E0172F63FEF72DF915C697B387F741A1
:10542000B3D6670242074183B3F76702330EDE0249
:10543000C207D98F63FBC701C6971387F6FF63EBDB
:10544000172B63F9C72BF916C697C205D58D93960E
:10545000050193DF0501C1823383A602B387C741EB
:10546000B306DF02135703013385AF02AA963697BE
:10547000330FFF036374A700C166369F41657D1536
:1054800093560701698F42073373A300369F1A971B
:1054900063FAE717C6979386F5FF63E2172D63EB70
:1054A000E727638AE735B68593E51500C5BB2685F2
:1054B000EF10300E13075501F145930905022246FE
:1054C000B246E3DEE5CE130485FFB39B8400014CB6
:1054D00021B3328532C4EF10D00B13075501F146CA
:1054E000AA87224613050502E3DBE6C8138487FF7B
:1054F00081453314860079B9E372ECEE769CB335BE
:10550000DC01C695AE979305F4FF63F2F81063E8EB
:10551000C7186304F6182E84D1B5E368BCDE139770
:10552000FB0193571C0093DB1B00D98F7E0CCDB37E
:10553000C28635E613F67500A288631206246180E0
:10554000134414001376140085471385E9413397FB
:10555000A80033D4F500B395A500598CB335B0003D
:105560004D8C9375740033D7F80099C98947136936
:1055700019006306FB2E8D476308FB2C63050B287F
:105580009317870063DD0722136919008547E3023B
:1055900006D60546814701441369290081A0854745
:1055A000918F13078003635CF7084D8C6316041416
:1055B000136929000146814715A08947630CFB0C3C
:1055C0008D476300FB0663000B063704100093074A
:1055D000F4FF1306E07F7D54136959001397C70049
:1055E000318393174601FE06D98FD58F2285BE855C
:1055F00073201900A5B10145B705F87F4149732013
:105600001900A9B9E392E7EBE30A07C861B5E3948F
:10561000F8F0E37EDCEF2E84D1B33A859DB32E847F
:105620001DBBE31408FA1306F07F814701446DB7F0
:105630008547918F130780036340F70CFD557D4725
:10564000635EF7220557118F130600023357E400FB
:105650006387C7001385E9433314A400C18D333435
:10566000B000598C9377740099CB8947136919005E
:105670006305FB1E8D476307FB1C63040B180D803D
:105680008147137619000147E30006BC0146136900
:105690002900A9B7E30B08F279B7E37EECE6769C24
:1056A000B335DC01C6957914AE970DBB6353C008C2
:1056B000894713691900630EFB0A8D476305FB0ACE
:1056C000630B0B0EB7050020FD15CDB68947136996
:1056D00019006301FB0A8D476308FB08E3160BBC46
:1056E00093F7F5001147C286639EE7168D817DBE54
:1056F000B6852DB3BA8691BB894713691900333437
:105700000001E307FBEA8D470144E313FBEA13348E
:10571000180079BD93961E00B3BED601F698C697C1
:10572000F915B68EE392E7D9E30AD7B793E51500EA
:10573000B5B6E31F06EE894713691900630DFB0E2A
:105740008D47630EFB0C63070B12A288FD5593096E
:1057500010C0F5B3C286014781470144F5B4B68550
:10576000E384E7FD91B3FD55630E08068D81854600
:1057700035BEFD55631F08048D81814605BE8947EE
:1057800013691900630DFB0A8D47630DFB08E318CD
:105790000BDA93F7F5001147E383E7DA93B7C5FF18
:1057A00093C71700A2883E9459BBC2861307F07FA7
:1057B0008147014451BC854781453E94C5BC931740
:1057C00097000D807607B183598CE31C06EA0147E8
:1057D000A5BC93878500B3B5B7002E94854693D5B5
:1057E0003700E9B493878500B3B5B7002E9481469E
:1057F00093D5370065BCE3EFEEF0B685E318D7F339
:1058000071BC054601479377F4009145E38AB7D60A
:105810009307440033B4870022973E8495B3FD5527
:10582000930910C0A288E31C08D093B785FF93C7E3
:1058300017003E9429B3A288FD55930910C0E300D8
:1058400008D0E5B705460147E31C08D2930784005A
:1058500033B4870022973E8425B305460147E30110
:1058600008D2EDB793B7C5FF93C7170091058D8197
:105870003E942DBCFD55930910C00DB7A288054676
:10588000E9B1F3272000B707100013D74501FD1732
:1058900013D846011377F77F9308F07F33F3B700EF
:1058A000AA8EF58FFD81328E1378F87FFD82630C0E
:1058B0001701630618010545630F070182805D8E9D
:1058C00031E6054582803365A3000DE5E31BE8FE64
:1058D00033E5C70005ED0545E312F3FEE310DEFFF7
:1058E0000145E38DD5FC054571FB3366C3003335B7
:1058F000C00082809316C30063C506007360180061
:10590000C9B70545E31CE8FA5D8E4DDA1397C70069
:10591000E34907FA736018006DB7F3272000B70753
:10592000100013D74501FD1713D846011377F77FF1
:105930009308F07F33F3B7002A8EF58FFD81B28E86
:105940001378F87FFD82630A1703630018031DEBC9
:10595000B368A300631408005D8E39CA6387080426
:10596000638AD5020545A1E18280B3E8C700E380E0
:1059700008FE73601800795582803365A30075F9BD
:10598000630CE802631408005D8E69DEE39CD5FCBD
:10599000E34AE8FC63480701E3E667FC6303F302BC
:1059A000637FF30081E57D558280F5DE05458280C9
:1059B0000145E39908FA82805D8E69DA5DBF014591
:1059C0008280E3E1CEFB0145E370DEFBE5F1E1BF60
:1059D000F3272000B707100013D74501FD1713D890
:1059E00046011377F77F9308F07F33F3B7002A8ED1
:1059F000F58FFD81B28E1378F87FFD82630F170358
:105A0000630D180121E3B368A300631008025D8EE3
:105A100009EE0145639F08008280B3E8C700E38375
:105A200008FE7360180009458280638F0802638353
:105A3000D5020545F5D17D5582803365A30075F10A
:105A40006307E802631408005D8E65D6E393D5FE14
:105A5000E341E8FE63480701E3ED67FC630EF300F2
:105A6000637AF30099E1C1BFF9D6054582805D8E66
:105A700071DE45BF01458280E3EDCEFB0145E37D4C
:105A8000DEF9E5F54DBF397152D406DE22DC26DAA7
:105A90004AD84ED656D25AD05ECE62CC66CA2A8A30
:105AA000732B200013D945019399C5001379F97F11
:105AB00093D9C90093DBF501630E09129307F07FB8
:105AC000630DF9161354D5018E09B36934013704F7
:105AD000800033E4890093143500130919C0014A8A
